{
  "contractName": "MagguToken",
  "abi": [
    {
      "inputs": [],
      "stateMutability": "nonpayable",
      "type": "constructor"
    },
    {
      "inputs": [],
      "name": "totalSupply",
      "outputs": [
        {
          "internalType": "uint256",
          "name": "",
          "type": "uint256"
        }
      ],
      "stateMutability": "view",
      "type": "function",
      "constant": true
    }
  ],
  "bytecode": "0x6080604052348015600f57600080fd5b50620f42406000819055506085806100286000396000f3fe6080604052348015600f57600080fd5b506004361060285760003560e01c806318160ddd14602d575b600080fd5b60336049565b6040518082815260200191505060405180910390f35b6000548156fea26469706673582212200bdab59973e90157dfa156154631bebf0b7eb10c4e20c664d61e798c5560668e64736f6c63430007040033",
  "immutableReferences": {},
  "source": "// SPDX-License-Identifier: MIT\r\npragma solidity ^0.7.4;\r\n\r\ncontract MagguToken{\r\n    // Constructor\r\n    // Set total number of tokens\r\n    // Read total number of Tokens\r\n    uint256 public totalSupply;\r\n\r\n    constructor(){\r\n        totalSupply = 1000000;\r\n    }\r\n\r\n\r\n}",
  "sourcePath": "C:/Data/Study/I-SURP Project/Token/contracts/MagguToken.sol",
  "compiler": {
    "name": "solc",
    "version": "0.7.4+commit.3f05b770.Emscripten.clang"
  },
  "schemaVersion": "3.3.4",
  "updatedAt": "2021-02-13T08:26:53.937Z",
  "networkType": "ethereum",
  "devdoc": {
    "kind": "dev",
    "methods": {},
    "version": 1
  },
  "userdoc": {
    "kind": "user",
    "methods": {},
    "version": 1
  }
}