{
  "contractName": "MagguToken",
  "abi": [
    {
      "inputs": [
        {
          "internalType": "uint256",
          "name": "_initialSupply",
          "type": "uint256"
        }
      ],
      "stateMutability": "nonpayable",
      "type": "constructor"
    },
    {
      "anonymous": false,
      "inputs": [
        {
          "indexed": true,
          "internalType": "address",
          "name": "_from",
          "type": "address"
        },
        {
          "indexed": true,
          "internalType": "address",
          "name": "_to",
          "type": "address"
        },
        {
          "indexed": false,
          "internalType": "uint256",
          "name": "_value",
          "type": "uint256"
        }
      ],
      "name": "Transfer",
      "type": "event"
    },
    {
      "inputs": [
        {
          "internalType": "address",
          "name": "",
          "type": "address"
        }
      ],
      "name": "balanceOf",
      "outputs": [
        {
          "internalType": "uint256",
          "name": "",
          "type": "uint256"
        }
      ],
      "stateMutability": "view",
      "type": "function",
      "constant": true
    },
    {
      "inputs": [],
      "name": "name",
      "outputs": [
        {
          "internalType": "string",
          "name": "",
          "type": "string"
        }
      ],
      "stateMutability": "view",
      "type": "function",
      "constant": true
    },
    {
      "inputs": [],
      "name": "standard",
      "outputs": [
        {
          "internalType": "string",
          "name": "",
          "type": "string"
        }
      ],
      "stateMutability": "view",
      "type": "function",
      "constant": true
    },
    {
      "inputs": [],
      "name": "symbol",
      "outputs": [
        {
          "internalType": "string",
          "name": "",
          "type": "string"
        }
      ],
      "stateMutability": "view",
      "type": "function",
      "constant": true
    },
    {
      "inputs": [],
      "name": "totalSupply",
      "outputs": [
        {
          "internalType": "uint256",
          "name": "",
          "type": "uint256"
        }
      ],
      "stateMutability": "view",
      "type": "function",
      "constant": true
    },
    {
      "inputs": [
        {
          "internalType": "address",
          "name": "_to",
          "type": "address"
        },
        {
          "internalType": "uint256",
          "name": "_value",
          "type": "uint256"
        }
      ],
      "name": "transfer",
      "outputs": [
        {
          "internalType": "bool",
          "name": "",
          "type": "bool"
        }
      ],
      "stateMutability": "nonpayable",
      "type": "function"
    }
  ],
  "bytecode": "0x60806040526040518060400160405280600a81526020017f4d61676775546f6b656e000000000000000000000000000000000000000000008152506000908051906020019061004f929190610179565b506040518060400160405280600381526020017f4d554700000000000000000000000000000000000000000000000000000000008152506001908051906020019061009b929190610179565b506040518060400160405280600f81526020017f4d61676775546f6b656e2076312e300000000000000000000000000000000000815250600290805190602001906100e7929190610179565b503480156100f457600080fd5b506040516108823803806108828339818101604052602081101561011757600080fd5b810190808051906020019092919050505080600460003373ffffffffffffffffffffffffffffffffffffffff1673ffffffffffffffffffffffffffffffffffffffff168152602001908152602001600020819055508060038190555050610224565b828054600181600116156101000203166002900490600052602060002090601f0160209004810192826101af57600085556101f6565b82601f106101c857805160ff19168380011785556101f6565b828001600101855582156101f6579182015b828111156101f55782518255916020019190600101906101da565b5b5090506102039190610207565b5090565b5b80821115610220576000816000905550600101610208565b5090565b61064f806102336000396000f3fe608060405234801561001057600080fd5b50600436106100625760003560e01c806306fdde031461006757806318160ddd146100ea5780635a3b7e421461010857806370a082311461018b57806395d89b41146101e3578063a9059cbb14610266575b600080fd5b61006f6102ca565b6040518080602001828103825283818151815260200191508051906020019080838360005b838110156100af578082015181840152602081019050610094565b50505050905090810190601f1680156100dc5780820380516001836020036101000a031916815260200191505b509250505060405180910390f35b6100f2610368565b6040518082815260200191505060405180910390f35b61011061036e565b6040518080602001828103825283818151815260200191508051906020019080838360005b83811015610150578082015181840152602081019050610135565b50505050905090810190601f16801561017d5780820380516001836020036101000a031916815260200191505b509250505060405180910390f35b6101cd600480360360208110156101a157600080fd5b81019080803573ffffffffffffffffffffffffffffffffffffffff16906020019092919050505061040c565b6040518082815260200191505060405180910390f35b6101eb610424565b6040518080602001828103825283818151815260200191508051906020019080838360005b8381101561022b578082015181840152602081019050610210565b50505050905090810190601f1680156102585780820380516001836020036101000a031916815260200191505b509250505060405180910390f35b6102b26004803603604081101561027c57600080fd5b81019080803573ffffffffffffffffffffffffffffffffffffffff169060200190929190803590602001909291905050506104c2565b60405180821515815260200191505060405180910390f35b60008054600181600116156101000203166002900480601f0160208091040260200160405190810160405280929190818152602001828054600181600116156101000203166002900480156103605780601f1061033557610100808354040283529160200191610360565b820191906000526020600020905b81548152906001019060200180831161034357829003601f168201915b505050505081565b60035481565b60028054600181600116156101000203166002900480601f0160208091040260200160405190810160405280929190818152602001828054600181600116156101000203166002900480156104045780601f106103d957610100808354040283529160200191610404565b820191906000526020600020905b8154815290600101906020018083116103e757829003601f168201915b505050505081565b60046020528060005260406000206000915090505481565b60018054600181600116156101000203166002900480601f0160208091040260200160405190810160405280929190818152602001828054600181600116156101000203166002900480156104ba5780601f1061048f576101008083540402835291602001916104ba565b820191906000526020600020905b81548152906001019060200180831161049d57829003601f168201915b505050505081565b600081600460003373ffffffffffffffffffffffffffffffffffffffff1673ffffffffffffffffffffffffffffffffffffffff16815260200190815260200160002054101561051057600080fd5b81600460003373ffffffffffffffffffffffffffffffffffffffff1673ffffffffffffffffffffffffffffffffffffffff1681526020019081526020016000206000828254039250508190555081600460008573ffffffffffffffffffffffffffffffffffffffff1673ffffffffffffffffffffffffffffffffffffffff168152602001908152602001600020600082825401925050819055508273ffffffffffffffffffffffffffffffffffffffff163373ffffffffffffffffffffffffffffffffffffffff167fddf252ad1be2c89b69c2b068fc378daa952ba7f163c4a11628f55a4df523b3ef846040518082815260200191505060405180910390a3600190509291505056fea2646970667358221220424f55fd399bf99e8ab3f2883e6eea946b6dd9b24d3b070aba524c6fbbe85cfc64736f6c63430007040033",
  "immutableReferences": {},
  "source": "// SPDX-License-Identifier: MIT\r\npragma solidity ^0.7.4;\r\n\r\ncontract MagguToken{\r\n    //Name\r\n    string public name=\"MagguToken\";\r\n    //Symbol\r\n    string public symbol =\"MUG\";\r\n    //Standard\r\n    string public standard= \"MagguToken v1.0\";\r\n\r\n    //Total Supply\r\n    uint256 public totalSupply;\r\n    \r\n    mapping(address=> uint256) public balanceOf;\r\n\r\n    //Transfer Event\r\n    event Transfer(\r\n        address indexed _from,\r\n        address indexed _to,\r\n        uint256 _value   \r\n    );\r\n\r\n    //Constructor\r\n    constructor(uint256 _initialSupply){\r\n        //allocate the initial supply\r\n        balanceOf[msg.sender] = _initialSupply;\r\n        totalSupply = _initialSupply;\r\n    }\r\n\r\n    //Transfer function\r\n    function transfer(address _to, uint256 _value) public returns (bool){\r\n            //Exception if account doesn't have enough\r\n            require(balanceOf[msg.sender]>=_value); //if it is true, continue function execution\r\n            \r\n            //Transfer balance\r\n            balanceOf[msg.sender] -=_value;\r\n            balanceOf[_to] +=_value;\r\n\r\n            //Transfer event\r\n            emit Transfer(msg.sender, _to, _value);\r\n\r\n            return true;\r\n\r\n\r\n    }\r\n\r\n}",
  "sourcePath": "C:/Data/Study/I-SURP Project/Token/contracts/MagguToken.sol",
  "compiler": {
    "name": "solc",
    "version": "0.7.4+commit.3f05b770.Emscripten.clang"
  },
  "schemaVersion": "3.3.4",
  "updatedAt": "2021-02-13T16:55:30.034Z",
  "networkType": "ethereum",
  "devdoc": {
    "kind": "dev",
    "methods": {},
    "version": 1
  },
  "userdoc": {
    "kind": "user",
    "methods": {},
    "version": 1
  }
}