{
  "contractName": "TokenSale",
  "abi": [
    {
      "inputs": [
        {
          "internalType": "contract MagguToken",
          "name": "_tokenContract",
          "type": "address"
        },
        {
          "internalType": "uint256",
          "name": "_tokenPrice",
          "type": "uint256"
        }
      ],
      "stateMutability": "nonpayable",
      "type": "constructor"
    },
    {
      "anonymous": false,
      "inputs": [
        {
          "indexed": false,
          "internalType": "address",
          "name": "_buyer",
          "type": "address"
        },
        {
          "indexed": false,
          "internalType": "uint256",
          "name": "_amount",
          "type": "uint256"
        }
      ],
      "name": "Sell",
      "type": "event"
    },
    {
      "inputs": [],
      "name": "tokenContract",
      "outputs": [
        {
          "internalType": "contract MagguToken",
          "name": "",
          "type": "address"
        }
      ],
      "stateMutability": "view",
      "type": "function",
      "constant": true
    },
    {
      "inputs": [],
      "name": "tokenPrice",
      "outputs": [
        {
          "internalType": "uint256",
          "name": "",
          "type": "uint256"
        }
      ],
      "stateMutability": "view",
      "type": "function",
      "constant": true
    },
    {
      "inputs": [],
      "name": "tokenSold",
      "outputs": [
        {
          "internalType": "uint256",
          "name": "",
          "type": "uint256"
        }
      ],
      "stateMutability": "view",
      "type": "function",
      "constant": true
    },
    {
      "inputs": [
        {
          "internalType": "uint256",
          "name": "_numberOfTokens",
          "type": "uint256"
        }
      ],
      "name": "buyToken",
      "outputs": [],
      "stateMutability": "payable",
      "type": "function",
      "payable": true
    }
  ],
  "bytecode": "0x608060405234801561001057600080fd5b506040516104a93803806104a98339818101604052604081101561003357600080fd5b810190808051906020019092919080519060200190929190505050336000806101000a81548173ffffffffffffffffffffffffffffffffffffffff021916908373ffffffffffffffffffffffffffffffffffffffff16021790555081600160006101000a81548173ffffffffffffffffffffffffffffffffffffffff021916908373ffffffffffffffffffffffffffffffffffffffff1602179055508060028190555050506103c2806100e76000396000f3fe60806040526004361061003f5760003560e01c80632d296bf114610044578063519ee19e1461007257806355a373d61461009d5780637ff9b596146100de575b600080fd5b6100706004803603602081101561005a57600080fd5b8101908080359060200190929190505050610109565b005b34801561007e57600080fd5b5061008761032f565b6040518082815260200191505060405180910390f35b3480156100a957600080fd5b506100b2610335565b604051808273ffffffffffffffffffffffffffffffffffffffff16815260200191505060405180910390f35b3480156100ea57600080fd5b506100f361035b565b6040518082815260200191505060405180910390f35b3461011682600254610361565b1461012057600080fd5b80600160009054906101000a900473ffffffffffffffffffffffffffffffffffffffff1673ffffffffffffffffffffffffffffffffffffffff166370a08231306040518263ffffffff1660e01b8152600401808273ffffffffffffffffffffffffffffffffffffffff16815260200191505060206040518083038186803b1580156101aa57600080fd5b505afa1580156101be573d6000803e3d6000fd5b505050506040513d60208110156101d457600080fd5b810190808051906020019092919050505010156101f057600080fd5b600160009054906101000a900473ffffffffffffffffffffffffffffffffffffffff1673ffffffffffffffffffffffffffffffffffffffff1663a9059cbb33836040518363ffffffff1660e01b8152600401808373ffffffffffffffffffffffffffffffffffffffff16815260200182815260200192505050602060405180830381600087803b15801561028357600080fd5b505af1158015610297573d6000803e3d6000fd5b505050506040513d60208110156102ad57600080fd5b81019080805190602001909291905050506102c757600080fd5b7f5e5e995ce3133561afceaa51a9a154d5db228cd7525d34df5185582c18d3df093382604051808373ffffffffffffffffffffffffffffffffffffffff1681526020018281526020019250505060405180910390a18060036000828254019250508190555050565b60035481565b600160009054906101000a900473ffffffffffffffffffffffffffffffffffffffff1681565b60025481565b60008082148061037d5750828283850283038161037a57fe5b04145b61038657600080fd5b9291505056fea2646970667358221220b0a425c6edc1b2cc815bd3b31625b1d3cf5981c1e0ccecff890b875acd49769664736f6c63430007040033",
  "immutableReferences": {},
  "source": "// SPDX-License-Identifier: MIT\r\npragma solidity ^0.7.4;\r\nimport \"./MagguToken.sol\";\r\n\r\ncontract TokenSale {\r\n    address admin;\r\n    MagguToken public tokenContract;\r\n    uint256 public tokenPrice;\r\n    uint256 public tokenSold; \r\n\r\n    event Sell(\r\n        address _buyer,\r\n        uint256 _amount\r\n    );\r\n\r\n    constructor(MagguToken _tokenContract, uint256 _tokenPrice) {\r\n        //Assign admin\r\n        admin = msg.sender;\r\n        //Token Contract\r\n        tokenContract = _tokenContract;\r\n        //Token Price set\r\n        tokenPrice = _tokenPrice;\r\n    }\r\n\r\n    //Multiply\r\n    function multiply(uint256 x, uint y) internal pure returns(uint z){\r\n        require(y==0 || (z-x*y)/y==x);\r\n    }\r\n//pure means they re not doing any transcation\r\n\r\n\r\n    //Buy Token\r\n    function buyToken(uint256 _numberOfTokens) public payable {\r\n    //Require that value is equal to tokens\r\n    require(multiply(_numberOfTokens, tokenPrice)==msg.value);\r\n    //Require that contract has enough tokens\r\n    require(tokenContract.balanceOf(address(this)) >= _numberOfTokens);\r\n    // Require that transfer is successful\r\n    require(tokenContract.transfer( msg.sender, _numberOfTokens ));\r\n    //Trigger event \r\n    emit Sell(msg.sender, _numberOfTokens); \r\n\r\n    // Keep track of tokenSold\r\n    tokenSold += _numberOfTokens;\r\n    }\r\n\r\n}\r\n",
  "sourcePath": "/home/noddy527/Token/contracts/TokenSale.sol",
  "compiler": {
    "name": "solc",
    "version": "0.7.4+commit.3f05b770.Emscripten.clang"
  },
  "schemaVersion": "3.3.3",
  "updatedAt": "2021-02-14T10:23:44.246Z",
  "networkType": "ethereum",
  "devdoc": {
    "kind": "dev",
    "methods": {},
    "version": 1
  },
  "userdoc": {
    "kind": "user",
    "methods": {},
    "version": 1
  }
}